{
  "_format": "hh-sol-artifact-1",
  "contractName": "PfpFactory",
  "sourceName": "contracts/PfpFactory.sol",
  "abi": [
    {
      "inputs": [
        {
          "internalType": "address",
          "name": "_masterContract",
          "type": "address"
        },
        {
          "internalType": "address",
          "name": "_owner",
          "type": "address"
        }
      ],
      "stateMutability": "nonpayable",
      "type": "constructor"
    },
    {
      "inputs": [
        {
          "internalType": "address",
          "name": "_tenant",
          "type": "address"
        }
      ],
      "name": "createInstance",
      "outputs": [],
      "stateMutability": "nonpayable",
      "type": "function"
    },
    {
      "inputs": [
        {
          "internalType": "address",
          "name": "_tenant",
          "type": "address"
        }
      ],
      "name": "getProxy",
      "outputs": [
        {
          "internalType": "contract Pfp",
          "name": "",
          "type": "address"
        }
      ],
      "stateMutability": "view",
      "type": "function"
    },
    {
      "inputs": [],
      "name": "masterContract",
      "outputs": [
        {
          "internalType": "address",
          "name": "",
          "type": "address"
        }
      ],
      "stateMutability": "view",
      "type": "function"
    },
    {
      "inputs": [],
      "name": "owner",
      "outputs": [
        {
          "internalType": "address",
          "name": "",
          "type": "address"
        }
      ],
      "stateMutability": "view",
      "type": "function"
    },
    {
      "inputs": [
        {
          "internalType": "address",
          "name": "",
          "type": "address"
        }
      ],
      "name": "tenants",
      "outputs": [
        {
          "internalType": "contract Pfp",
          "name": "module",
          "type": "address"
        },
        {
          "internalType": "address",
          "name": "owner",
          "type": "address"
        }
      ],
      "stateMutability": "view",
      "type": "function"
    }
  ],
  "bytecode": "0x60c060405273d847c7408c48b6b6720cca75eb30a93acbf5163d600160006101000a81548173ffffffffffffffffffffffffffffffffffffffff021916908373ffffffffffffffffffffffffffffffffffffffff16021790555034801561006557600080fd5b5060405161088c38038061088c83398181016040528101906100879190610111565b8173ffffffffffffffffffffffffffffffffffffffff1660a08173ffffffffffffffffffffffffffffffffffffffff1660601b815250508073ffffffffffffffffffffffffffffffffffffffff1660808173ffffffffffffffffffffffffffffffffffffffff1660601b815250505050610196565b60008151905061010b8161017f565b92915050565b6000806040838503121561012457600080fd5b6000610132858286016100fc565b9250506020610143858286016100fc565b9150509250929050565b60006101588261015f565b9050919050565b600073ffffffffffffffffffffffffffffffffffffffff82169050919050565b6101888161014d565b811461019357600080fd5b50565b60805160601c60a05160601c6106c46101c8600039600081816101e301526103d30152600061034401526106c46000f3fe608060405234801561001057600080fd5b50600436106100575760003560e01c80637726f7761461005c5780638da5cb5b14610078578063b7fba4d314610096578063cd446e22146100c6578063fd9153a3146100e4575b600080fd5b610076600480360381019061007191906104d8565b610115565b005b610080610342565b60405161008d9190610542565b60405180910390f35b6100b060048036038101906100ab91906104d8565b610366565b6040516100bd919061055d565b60405180910390f35b6100ce6103d1565b6040516100db9190610542565b60405180910390f35b6100fe60048036038101906100f991906104d8565b6103f5565b60405161010c929190610578565b60405180910390f35b808073ffffffffffffffffffffffffffffffffffffffff163373ffffffffffffffffffffffffffffffffffffffff16148061019d5750600160009054906101000a900473ffffffffffffffffffffffffffffffffffffffff1673ffffffffffffffffffffffffffffffffffffffff163373ffffffffffffffffffffffffffffffffffffffff16145b6101dc576040517f08c379a00000000000000000000000000000000000000000000000000000000081526004016101d3906105a1565b60405180910390fd5b60006102077f0000000000000000000000000000000000000000000000000000000000000000610459565b90508073ffffffffffffffffffffffffffffffffffffffff166319ab453c336040518263ffffffff1660e01b81526004016102429190610542565b600060405180830381600087803b15801561025c57600080fd5b505af1158015610270573d6000803e3d6000fd5b5050505060008060008573ffffffffffffffffffffffffffffffffffffffff1673ffffffffffffffffffffffffffffffffffffffff1681526020019081526020016000209050818160000160006101000a81548173ffffffffffffffffffffffffffffffffffffffff021916908373ffffffffffffffffffffffffffffffffffffffff160217905550838160010160006101000a81548173ffffffffffffffffffffffffffffffffffffffff021916908373ffffffffffffffffffffffffffffffffffffffff16021790555050505050565b7f000000000000000000000000000000000000000000000000000000000000000081565b60008060008373ffffffffffffffffffffffffffffffffffffffff1673ffffffffffffffffffffffffffffffffffffffff16815260200190815260200160002060000160009054906101000a900473ffffffffffffffffffffffffffffffffffffffff169050919050565b7f000000000000000000000000000000000000000000000000000000000000000081565b60006020528060005260406000206000915090508060000160009054906101000a900473ffffffffffffffffffffffffffffffffffffffff16908060010160009054906101000a900473ffffffffffffffffffffffffffffffffffffffff16905082565b6000808260601b90506040517f3d602d80600a3d3981f3363d3d373d3d3d363d7300000000000000000000000081528160148201527f5af43d82803e903d91602b57fd5bf3000000000000000000000000000000000060288201526037816000f092505050919050565b6000813590506104d281610677565b92915050565b6000602082840312156104ea57600080fd5b60006104f8848285016104c3565b91505092915050565b61050a816105d2565b82525050565b61051981610604565b82525050565b600061052c6030836105c1565b915061053782610628565b604082019050919050565b60006020820190506105576000830184610501565b92915050565b60006020820190506105726000830184610510565b92915050565b600060408201905061058d6000830185610510565b61059a6020830184610501565b9392505050565b600060208201905081810360008301526105ba8161051f565b9050919050565b600082825260208201905092915050565b60006105dd826105e4565b9050919050565b600073ffffffffffffffffffffffffffffffffffffffff82169050919050565b600061060f82610616565b9050919050565b6000610621826105e4565b9050919050565b7f506c656173652075736520612076616c6964206164647265737320746f20637260008201527f6561746520616e20696e7374616e636500000000000000000000000000000000602082015250565b610680816105d2565b811461068b57600080fd5b5056fea2646970667358221220f3915ff8aef45828fe9c90e99d45476fed1a462ec017f103b3270e5261a69fa464736f6c63430008040033",
  "linkReferences": {},
  "deployedLinkReferences": {}
}