{
  "_format": "hh-sol-artifact-1",
  "contractName": "Pfp",
  "sourceName": "contracts/Pfp.sol",
  "abi": [
    {
      "inputs": [
        {
          "internalType": "address",
          "name": "_owner",
          "type": "address"
        },
        {
          "internalType": "string",
          "name": "baseURI",
          "type": "string"
        }
      ],
      "stateMutability": "nonpayable",
      "type": "constructor"
    },
    {
      "anonymous": false,
      "inputs": [
        {
          "indexed": true,
          "internalType": "address",
          "name": "owner",
          "type": "address"
        },
        {
          "indexed": true,
          "internalType": "address",
          "name": "approved",
          "type": "address"
        },
        {
          "indexed": true,
          "internalType": "uint256",
          "name": "tokenId",
          "type": "uint256"
        }
      ],
      "name": "Approval",
      "type": "event"
    },
    {
      "anonymous": false,
      "inputs": [
        {
          "indexed": true,
          "internalType": "address",
          "name": "owner",
          "type": "address"
        },
        {
          "indexed": true,
          "internalType": "address",
          "name": "operator",
          "type": "address"
        },
        {
          "indexed": false,
          "internalType": "bool",
          "name": "approved",
          "type": "bool"
        }
      ],
      "name": "ApprovalForAll",
      "type": "event"
    },
    {
      "anonymous": false,
      "inputs": [
        {
          "indexed": true,
          "internalType": "address",
          "name": "previousOwner",
          "type": "address"
        },
        {
          "indexed": true,
          "internalType": "address",
          "name": "newOwner",
          "type": "address"
        }
      ],
      "name": "OwnershipTransferred",
      "type": "event"
    },
    {
      "anonymous": false,
      "inputs": [
        {
          "indexed": true,
          "internalType": "address",
          "name": "from",
          "type": "address"
        },
        {
          "indexed": true,
          "internalType": "address",
          "name": "to",
          "type": "address"
        },
        {
          "indexed": true,
          "internalType": "uint256",
          "name": "tokenId",
          "type": "uint256"
        }
      ],
      "name": "Transfer",
      "type": "event"
    },
    {
      "inputs": [],
      "name": "MAX_PER_MINT",
      "outputs": [
        {
          "internalType": "uint256",
          "name": "",
          "type": "uint256"
        }
      ],
      "stateMutability": "view",
      "type": "function"
    },
    {
      "inputs": [],
      "name": "MAX_SUPPLY",
      "outputs": [
        {
          "internalType": "uint256",
          "name": "",
          "type": "uint256"
        }
      ],
      "stateMutability": "view",
      "type": "function"
    },
    {
      "inputs": [],
      "name": "PRICE",
      "outputs": [
        {
          "internalType": "uint256",
          "name": "",
          "type": "uint256"
        }
      ],
      "stateMutability": "view",
      "type": "function"
    },
    {
      "inputs": [
        {
          "internalType": "address",
          "name": "to",
          "type": "address"
        },
        {
          "internalType": "uint256",
          "name": "tokenId",
          "type": "uint256"
        }
      ],
      "name": "approve",
      "outputs": [],
      "stateMutability": "nonpayable",
      "type": "function"
    },
    {
      "inputs": [
        {
          "internalType": "address",
          "name": "owner",
          "type": "address"
        }
      ],
      "name": "balanceOf",
      "outputs": [
        {
          "internalType": "uint256",
          "name": "",
          "type": "uint256"
        }
      ],
      "stateMutability": "view",
      "type": "function"
    },
    {
      "inputs": [],
      "name": "baseTokenURI",
      "outputs": [
        {
          "internalType": "string",
          "name": "",
          "type": "string"
        }
      ],
      "stateMutability": "view",
      "type": "function"
    },
    {
      "inputs": [],
      "name": "contractOwner",
      "outputs": [
        {
          "internalType": "address",
          "name": "",
          "type": "address"
        }
      ],
      "stateMutability": "view",
      "type": "function"
    },
    {
      "inputs": [
        {
          "internalType": "uint256",
          "name": "tokenId",
          "type": "uint256"
        }
      ],
      "name": "getApproved",
      "outputs": [
        {
          "internalType": "address",
          "name": "",
          "type": "address"
        }
      ],
      "stateMutability": "view",
      "type": "function"
    },
    {
      "inputs": [
        {
          "internalType": "address",
          "name": "_tenant",
          "type": "address"
        }
      ],
      "name": "init",
      "outputs": [],
      "stateMutability": "nonpayable",
      "type": "function"
    },
    {
      "inputs": [
        {
          "internalType": "address",
          "name": "owner",
          "type": "address"
        },
        {
          "internalType": "address",
          "name": "operator",
          "type": "address"
        }
      ],
      "name": "isApprovedForAll",
      "outputs": [
        {
          "internalType": "bool",
          "name": "",
          "type": "bool"
        }
      ],
      "stateMutability": "view",
      "type": "function"
    },
    {
      "inputs": [],
      "name": "metadata",
      "outputs": [
        {
          "internalType": "bytes",
          "name": "title",
          "type": "bytes"
        },
        {
          "components": [
            {
              "internalType": "address",
              "name": "authorAddress",
              "type": "address"
            },
            {
              "internalType": "string",
              "name": "externalLink",
              "type": "string"
            }
          ],
          "internalType": "struct IHyperverseModule.Author",
          "name": "author",
          "type": "tuple"
        },
        {
          "internalType": "bytes",
          "name": "version",
          "type": "bytes"
        },
        {
          "internalType": "uint64",
          "name": "publishedAt",
          "type": "uint64"
        },
        {
          "internalType": "bytes",
          "name": "externalLink",
          "type": "bytes"
        }
      ],
      "stateMutability": "view",
      "type": "function"
    },
    {
      "inputs": [
        {
          "internalType": "uint256",
          "name": "_count",
          "type": "uint256"
        }
      ],
      "name": "mintNFTs",
      "outputs": [],
      "stateMutability": "payable",
      "type": "function"
    },
    {
      "inputs": [],
      "name": "name",
      "outputs": [
        {
          "internalType": "string",
          "name": "",
          "type": "string"
        }
      ],
      "stateMutability": "view",
      "type": "function"
    },
    {
      "inputs": [],
      "name": "owner",
      "outputs": [
        {
          "internalType": "address",
          "name": "",
          "type": "address"
        }
      ],
      "stateMutability": "view",
      "type": "function"
    },
    {
      "inputs": [
        {
          "internalType": "uint256",
          "name": "tokenId",
          "type": "uint256"
        }
      ],
      "name": "ownerOf",
      "outputs": [
        {
          "internalType": "address",
          "name": "",
          "type": "address"
        }
      ],
      "stateMutability": "view",
      "type": "function"
    },
    {
      "inputs": [],
      "name": "renounceOwnership",
      "outputs": [],
      "stateMutability": "nonpayable",
      "type": "function"
    },
    {
      "inputs": [],
      "name": "reserveNFTs",
      "outputs": [],
      "stateMutability": "nonpayable",
      "type": "function"
    },
    {
      "inputs": [
        {
          "internalType": "address",
          "name": "from",
          "type": "address"
        },
        {
          "internalType": "address",
          "name": "to",
          "type": "address"
        },
        {
          "internalType": "uint256",
          "name": "tokenId",
          "type": "uint256"
        }
      ],
      "name": "safeTransferFrom",
      "outputs": [],
      "stateMutability": "nonpayable",
      "type": "function"
    },
    {
      "inputs": [
        {
          "internalType": "address",
          "name": "from",
          "type": "address"
        },
        {
          "internalType": "address",
          "name": "to",
          "type": "address"
        },
        {
          "internalType": "uint256",
          "name": "tokenId",
          "type": "uint256"
        },
        {
          "internalType": "bytes",
          "name": "_data",
          "type": "bytes"
        }
      ],
      "name": "safeTransferFrom",
      "outputs": [],
      "stateMutability": "nonpayable",
      "type": "function"
    },
    {
      "inputs": [
        {
          "internalType": "address",
          "name": "operator",
          "type": "address"
        },
        {
          "internalType": "bool",
          "name": "approved",
          "type": "bool"
        }
      ],
      "name": "setApprovalForAll",
      "outputs": [],
      "stateMutability": "nonpayable",
      "type": "function"
    },
    {
      "inputs": [
        {
          "internalType": "string",
          "name": "_baseTokenURI",
          "type": "string"
        }
      ],
      "name": "setBaseURI",
      "outputs": [],
      "stateMutability": "nonpayable",
      "type": "function"
    },
    {
      "inputs": [
        {
          "internalType": "bytes4",
          "name": "interfaceId",
          "type": "bytes4"
        }
      ],
      "name": "supportsInterface",
      "outputs": [
        {
          "internalType": "bool",
          "name": "",
          "type": "bool"
        }
      ],
      "stateMutability": "view",
      "type": "function"
    },
    {
      "inputs": [],
      "name": "symbol",
      "outputs": [
        {
          "internalType": "string",
          "name": "",
          "type": "string"
        }
      ],
      "stateMutability": "view",
      "type": "function"
    },
    {
      "inputs": [
        {
          "internalType": "uint256",
          "name": "index",
          "type": "uint256"
        }
      ],
      "name": "tokenByIndex",
      "outputs": [
        {
          "internalType": "uint256",
          "name": "",
          "type": "uint256"
        }
      ],
      "stateMutability": "view",
      "type": "function"
    },
    {
      "inputs": [
        {
          "internalType": "address",
          "name": "owner",
          "type": "address"
        },
        {
          "internalType": "uint256",
          "name": "index",
          "type": "uint256"
        }
      ],
      "name": "tokenOfOwnerByIndex",
      "outputs": [
        {
          "internalType": "uint256",
          "name": "",
          "type": "uint256"
        }
      ],
      "stateMutability": "view",
      "type": "function"
    },
    {
      "inputs": [
        {
          "internalType": "uint256",
          "name": "tokenId",
          "type": "uint256"
        }
      ],
      "name": "tokenURI",
      "outputs": [
        {
          "internalType": "string",
          "name": "",
          "type": "string"
        }
      ],
      "stateMutability": "view",
      "type": "function"
    },
    {
      "inputs": [
        {
          "internalType": "address",
          "name": "_owner",
          "type": "address"
        }
      ],
      "name": "tokensOfOwner",
      "outputs": [
        {
          "internalType": "uint256[]",
          "name": "",
          "type": "uint256[]"
        }
      ],
      "stateMutability": "view",
      "type": "function"
    },
    {
      "inputs": [],
      "name": "totalSupply",
      "outputs": [
        {
          "internalType": "uint256",
          "name": "",
          "type": "uint256"
        }
      ],
      "stateMutability": "view",
      "type": "function"
    },
    {
      "inputs": [
        {
          "internalType": "address",
          "name": "from",
          "type": "address"
        },
        {
          "internalType": "address",
          "name": "to",
          "type": "address"
        },
        {
          "internalType": "uint256",
          "name": "tokenId",
          "type": "uint256"
        }
      ],
      "name": "transferFrom",
      "outputs": [],
      "stateMutability": "nonpayable",
      "type": "function"
    },
    {
      "inputs": [
        {
          "internalType": "address",
          "name": "newOwner",
          "type": "address"
        }
      ],
      "name": "transferOwnership",
      "outputs": [],
      "stateMutability": "nonpayable",
      "type": "function"
    },
    {
      "inputs": [],
      "name": "withdraw",
      "outputs": [],
      "stateMutability": "payable",
      "type": "function"
    }
  ],
  "bytecode": "0x60a06040523480156200001157600080fd5b5060405162005132380380620051328339818101604052810190620000379190620006ea565b6040518060400160405280600f81526020017f4e465420436f6c6c65637469626c6500000000000000000000000000000000008152506040518060400160405280600481526020017f4e465443000000000000000000000000000000000000000000000000000000008152508160079080519060200190620000bb92919062000520565b508060089080519060200190620000d492919062000520565b505050620000f7620000eb6200037d60201b60201c565b6200038560201b60201c565b62000108816200044b60201b60201c565b6040518060a001604052806040518060400160405280600681526020017f4d6f64756c650000000000000000000000000000000000000000000000000000815250815260200160405180604001604052808573ffffffffffffffffffffffffffffffffffffffff1681526020016040518060400160405280601881526020017f68747470733a2f2f65787465726e616c6c696e6b2e6e6574000000000000000081525081525081526020016040518060400160405280600581526020017f312e302e30000000000000000000000000000000000000000000000000000000815250815260200165032a361e860667ffffffffffffffff1681526020016040518060400160405280601881526020017f68747470733a2f2f65787465726e616c6c696e6b2e6e657400000000000000008152508152506000808201518160000190805190602001906200025c929190620005b1565b5060208201518160010160008201518160000160006101000a81548173ffffffffffffffffffffffffffffffffffffffff021916908373ffffffffffffffffffffffffffffffffffffffff1602179055506020820151816001019080519060200190620002cb92919062000520565b5050506040820151816003019080519060200190620002ec929190620005b1565b5060608201518160040160006101000a81548167ffffffffffffffff021916908367ffffffffffffffff16021790555060808201518160050190805190602001906200033a929190620005b1565b509050508173ffffffffffffffffffffffffffffffffffffffff1660808173ffffffffffffffffffffffffffffffffffffffff1660601b81525050505062000985565b600033905090565b6000601160009054906101000a900473ffffffffffffffffffffffffffffffffffffffff16905081601160006101000a81548173ffffffffffffffffffffffffffffffffffffffff021916908373ffffffffffffffffffffffffffffffffffffffff1602179055508173ffffffffffffffffffffffffffffffffffffffff168173ffffffffffffffffffffffffffffffffffffffff167f8be0079c531659141344cd1fd0a4f28419497f9722a3daafe3b4186f6b6457e060405160405180910390a35050565b6200045b6200037d60201b60201c565b73ffffffffffffffffffffffffffffffffffffffff1662000481620004f660201b60201c565b73ffffffffffffffffffffffffffffffffffffffff1614620004da576040517f08c379a0000000000000000000000000000000000000000000000000000000008152600401620004d1906200076b565b60405180910390fd5b8060149080519060200190620004f292919062000520565b5050565b6000601160009054906101000a900473ffffffffffffffffffffffffffffffffffffffff16905090565b8280546200052e9062000867565b90600052602060002090601f0160209004810192826200055257600085556200059e565b82601f106200056d57805160ff19168380011785556200059e565b828001600101855582156200059e579182015b828111156200059d57825182559160200191906001019062000580565b5b509050620005ad919062000642565b5090565b828054620005bf9062000867565b90600052602060002090601f016020900481019282620005e357600085556200062f565b82601f10620005fe57805160ff19168380011785556200062f565b828001600101855582156200062f579182015b828111156200062e57825182559160200191906001019062000611565b5b5090506200063e919062000642565b5090565b5b808211156200065d57600081600090555060010162000643565b5090565b6000620006786200067284620007b6565b6200078d565b9050828152602081018484840111156200069157600080fd5b6200069e84828562000831565b509392505050565b600081519050620006b7816200096b565b92915050565b600082601f830112620006cf57600080fd5b8151620006e184826020860162000661565b91505092915050565b60008060408385031215620006fe57600080fd5b60006200070e85828601620006a6565b925050602083015167ffffffffffffffff8111156200072c57600080fd5b6200073a85828601620006bd565b9150509250929050565b600062000753602083620007ec565b9150620007608262000942565b602082019050919050565b60006020820190508181036000830152620007868162000744565b9050919050565b600062000799620007ac565b9050620007a782826200089d565b919050565b6000604051905090565b600067ffffffffffffffff821115620007d457620007d362000902565b5b620007df8262000931565b9050602081019050919050565b600082825260208201905092915050565b60006200080a8262000811565b9050919050565b600073ffffffffffffffffffffffffffffffffffffffff82169050919050565b60005b838110156200085157808201518184015260208101905062000834565b8381111562000861576000848401525b50505050565b600060028204905060018216806200088057607f821691505b60208210811415620008975762000896620008d3565b5b50919050565b620008a88262000931565b810181811067ffffffffffffffff82111715620008ca57620008c962000902565b5b80604052505050565b7f4e487b7100000000000000000000000000000000000000000000000000000000600052602260045260246000fd5b7f4e487b7100000000000000000000000000000000000000000000000000000000600052604160045260246000fd5b6000601f19601f8301169050919050565b7f4f776e61626c653a2063616c6c6572206973206e6f7420746865206f776e6572600082015250565b6200097681620007fd565b81146200098257600080fd5b50565b60805160601c61478e620009a4600039600061181d015261478e6000f3fe6080604052600436106101d85760003560e01c80634f6ccce71161010257806395d89b4111610095578063ce606ee011610064578063ce606ee014610694578063d547cfb7146106bf578063e985e9c5146106ea578063f2fde38b14610727576101d8565b806395d89b41146105da578063a22cb46514610605578063b88d4fde1461062e578063c87b56dd14610657576101d8565b8063715018a6116100d1578063715018a6146105305780638462151c146105475780638d859f3e146105845780638da5cb5b146105af576101d8565b80634f6ccce71461045057806355f804b31461048d5780636352211e146104b657806370a08231146104f3576101d8565b806319ab453c1161017a578063392f37e911610149578063392f37e9146103d25780633b4b1381146104015780633ccfd60b1461041d57806342842e0e14610427576101d8565b806319ab453c1461031857806323b872dd146103415780632f745c591461036a57806332cb6b0c146103a7576101d8565b8063095ea7b3116101b6578063095ea7b31461028257806309d42b30146102ab578063144100c7146102d657806318160ddd146102ed576101d8565b806301ffc9a7146101dd57806306fdde031461021a578063081812fc14610245575b600080fd5b3480156101e957600080fd5b5061020460048036038101906101ff9190613180565b610750565b6040516102119190613852565b60405180910390f35b34801561022657600080fd5b5061022f6107ca565b60405161023c91906138dc565b60405180910390f35b34801561025157600080fd5b5061026c60048036038101906102679190613213565b61085c565b60405161027991906137c9565b60405180910390f35b34801561028e57600080fd5b506102a960048036038101906102a49190613144565b6108e1565b005b3480156102b757600080fd5b506102c06109f9565b6040516102cd9190613bfe565b60405180910390f35b3480156102e257600080fd5b506102eb6109fe565b005b3480156102f957600080fd5b50610302610b0a565b60405161030f9190613bfe565b60405180910390f35b34801561032457600080fd5b5061033f600480360381019061033a9190612fd9565b610b17565b005b34801561034d57600080fd5b506103686004803603810190610363919061303e565b610b5b565b005b34801561037657600080fd5b50610391600480360381019061038c9190613144565b610bbb565b60405161039e9190613bfe565b60405180910390f35b3480156103b357600080fd5b506103bc610c60565b6040516103c99190613bfe565b60405180910390f35b3480156103de57600080fd5b506103e7610c66565b6040516103f895949392919061386d565b60405180910390f35b61041b60048036038101906104169190613213565b610f28565b005b610425611088565b005b34801561043357600080fd5b5061044e6004803603810190610449919061303e565b6111fc565b005b34801561045c57600080fd5b5061047760048036038101906104729190613213565b61121c565b6040516104849190613bfe565b60405180910390f35b34801561049957600080fd5b506104b460048036038101906104af91906131d2565b6112b3565b005b3480156104c257600080fd5b506104dd60048036038101906104d89190613213565b611349565b6040516104ea91906137c9565b60405180910390f35b3480156104ff57600080fd5b5061051a60048036038101906105159190612fd9565b6113fb565b6040516105279190613bfe565b60405180910390f35b34801561053c57600080fd5b506105456114b3565b005b34801561055357600080fd5b5061056e60048036038101906105699190612fd9565b61153b565b60405161057b9190613830565b60405180910390f35b34801561059057600080fd5b50610599611635565b6040516105a69190613bfe565b60405180910390f35b3480156105bb57600080fd5b506105c4611640565b6040516105d191906137c9565b60405180910390f35b3480156105e657600080fd5b506105ef61166a565b6040516105fc91906138dc565b60405180910390f35b34801561061157600080fd5b5061062c60048036038101906106279190613108565b6116fc565b005b34801561063a57600080fd5b506106556004803603810190610650919061308d565b611712565b005b34801561066357600080fd5b5061067e60048036038101906106799190613213565b611774565b60405161068b91906138dc565b60405180910390f35b3480156106a057600080fd5b506106a961181b565b6040516106b691906137c9565b60405180910390f35b3480156106cb57600080fd5b506106d461183f565b6040516106e191906138dc565b60405180910390f35b3480156106f657600080fd5b50610711600480360381019061070c9190613002565b6118cd565b60405161071e9190613852565b60405180910390f35b34801561073357600080fd5b5061074e60048036038101906107499190612fd9565b611961565b005b60007f780e9d63000000000000000000000000000000000000000000000000000000007bffffffffffffffffffffffffffffffffffffffffffffffffffffffff1916827bffffffffffffffffffffffffffffffffffffffffffffffffffffffff191614806107c357506107c282611a59565b5b9050919050565b6060600780546107d990613f17565b80601f016020809104026020016040519081016040528092919081815260200182805461080590613f17565b80156108525780601f1061082757610100808354040283529160200191610852565b820191906000526020600020905b81548152906001019060200180831161083557829003601f168201915b5050505050905090565b600061086782611b3b565b6108a6576040517f08c379a000000000000000000000000000000000000000000000000000000000815260040161089d90613b1e565b60405180910390fd5b600b600083815260200190815260200160002060009054906101000a900473ffffffffffffffffffffffffffffffffffffffff169050919050565b60006108ec82611349565b90508073ffffffffffffffffffffffffffffffffffffffff168373ffffffffffffffffffffffffffffffffffffffff16141561095d576040517f08c379a000000000000000000000000000000000000000000000000000000000815260040161095490613b7e565b60405180910390fd5b8073ffffffffffffffffffffffffffffffffffffffff1661097c611ba7565b73ffffffffffffffffffffffffffffffffffffffff1614806109ab57506109aa816109a5611ba7565b6118cd565b5b6109ea576040517f08c379a00000000000000000000000000000000000000000000000000000000081526004016109e190613a7e565b60405180910390fd5b6109f48383611baf565b505050565b600381565b610a06611ba7565b73ffffffffffffffffffffffffffffffffffffffff16610a24611640565b73ffffffffffffffffffffffffffffffffffffffff1614610a7a576040517f08c379a0000000000000000000000000000000000000000000000000000000008152600401610a7190613b3e565b60405180910390fd5b6000610a866013611c68565b9050612710610a9f600a83611c7690919063ffffffff16565b10610adf576040517f08c379a0000000000000000000000000000000000000000000000000000000008152600401610ad6906138fe565b60405180910390fd5b60005b600a811015610b0657610af3611c8c565b8080610afe90613f7a565b915050610ae2565b5050565b6000600f80549050905090565b80601260006101000a81548173ffffffffffffffffffffffffffffffffffffffff021916908373ffffffffffffffffffffffffffffffffffffffff16021790555050565b610b6c610b66611ba7565b82611cb1565b610bab576040517f08c379a0000000000000000000000000000000000000000000000000000000008152600401610ba290613bbe565b60405180910390fd5b610bb6838383611d8f565b505050565b6000610bc6836113fb565b8210610c07576040517f08c379a0000000000000000000000000000000000000000000000000000000008152600401610bfe9061391e565b60405180910390fd5b600d60008473ffffffffffffffffffffffffffffffffffffffff1673ffffffffffffffffffffffffffffffffffffffff168152602001908152602001600020600083815260200190815260200160002054905092915050565b61271081565b6000806000018054610c7790613f17565b80601f0160208091040260200160405190810160405280929190818152602001828054610ca390613f17565b8015610cf05780601f10610cc557610100808354040283529160200191610cf0565b820191906000526020600020905b815481529060010190602001808311610cd357829003601f168201915b505050505090806001016040518060400160405290816000820160009054906101000a900473ffffffffffffffffffffffffffffffffffffffff1673ffffffffffffffffffffffffffffffffffffffff1673ffffffffffffffffffffffffffffffffffffffff168152602001600182018054610d6b90613f17565b80601f0160208091040260200160405190810160405280929190818152602001828054610d9790613f17565b8015610de45780601f10610db957610100808354040283529160200191610de4565b820191906000526020600020905b815481529060010190602001808311610dc757829003601f168201915b50505050508152505090806003018054610dfd90613f17565b80601f0160208091040260200160405190810160405280929190818152602001828054610e2990613f17565b8015610e765780601f10610e4b57610100808354040283529160200191610e76565b820191906000526020600020905b815481529060010190602001808311610e5957829003601f168201915b5050505050908060040160009054906101000a900467ffffffffffffffff1690806005018054610ea590613f17565b80601f0160208091040260200160405190810160405280929190818152602001828054610ed190613f17565b8015610f1e5780601f10610ef357610100808354040283529160200191610f1e565b820191906000526020600020905b815481529060010190602001808311610f0157829003601f168201915b5050505050905085565b6000610f346013611c68565b9050610f4c6001612710611c7690919063ffffffff16565b610f5f8383611c7690919063ffffffff16565b10610f9f576040517f08c379a0000000000000000000000000000000000000000000000000000000008152600401610f9690613a1e565b60405180910390fd5b600082118015610fc25750610fbf60016003611c7690919063ffffffff16565b82105b611001576040517f08c379a0000000000000000000000000000000000000000000000000000000008152600401610ff890613a3e565b60405180910390fd5b61101b82662386f26fc10000611ff690919063ffffffff16565b34101561105d576040517f08c379a0000000000000000000000000000000000000000000000000000000008152600401611054906139fe565b60405180910390fd5b60005b8281101561108357611070611c8c565b808061107b90613f7a565b915050611060565b505050565b611090611ba7565b73ffffffffffffffffffffffffffffffffffffffff166110ae611640565b73ffffffffffffffffffffffffffffffffffffffff1614611104576040517f08c379a00000000000000000000000000000000000000000000000000000000081526004016110fb90613b3e565b60405180910390fd5b60004790506000811161114c576040517f08c379a000000000000000000000000000000000000000000000000000000000815260040161114390613afe565b60405180910390fd5b60003373ffffffffffffffffffffffffffffffffffffffff1682604051611172906137b4565b60006040518083038185875af1925050503d80600081146111af576040519150601f19603f3d011682016040523d82523d6000602084013e6111b4565b606091505b50509050806111f8576040517f08c379a00000000000000000000000000000000000000000000000000000000081526004016111ef90613b9e565b60405180910390fd5b5050565b61121783838360405180602001604052806000815250611712565b505050565b6000611226610b0a565b8210611267576040517f08c379a000000000000000000000000000000000000000000000000000000000815260040161125e90613bde565b60405180910390fd5b600f82815481106112a1577f4e487b7100000000000000000000000000000000000000000000000000000000600052603260045260246000fd5b90600052602060002001549050919050565b6112bb611ba7565b73ffffffffffffffffffffffffffffffffffffffff166112d9611640565b73ffffffffffffffffffffffffffffffffffffffff161461132f576040517f08c379a000000000000000000000000000000000000000000000000000000000815260040161132690613b3e565b60405180910390fd5b8060149080519060200190611345929190612dfd565b5050565b6000806009600084815260200190815260200160002060009054906101000a900473ffffffffffffffffffffffffffffffffffffffff169050600073ffffffffffffffffffffffffffffffffffffffff168173ffffffffffffffffffffffffffffffffffffffff1614156113f2576040517f08c379a00000000000000000000000000000000000000000000000000000000081526004016113e990613abe565b60405180910390fd5b80915050919050565b60008073ffffffffffffffffffffffffffffffffffffffff168273ffffffffffffffffffffffffffffffffffffffff16141561146c576040517f08c379a000000000000000000000000000000000000000000000000000000000815260040161146390613a9e565b60405180910390fd5b600a60008373ffffffffffffffffffffffffffffffffffffffff1673ffffffffffffffffffffffffffffffffffffffff168152602001908152602001600020549050919050565b6114bb611ba7565b73ffffffffffffffffffffffffffffffffffffffff166114d9611640565b73ffffffffffffffffffffffffffffffffffffffff161461152f576040517f08c379a000000000000000000000000000000000000000000000000000000000815260040161152690613b3e565b60405180910390fd5b611539600061200c565b565b60606000611548836113fb565b905060008167ffffffffffffffff81111561158c577f4e487b7100000000000000000000000000000000000000000000000000000000600052604160045260246000fd5b6040519080825280602002602001820160405280156115ba5781602001602082028036833780820191505090505b50905060005b8281101561162a576115d28582610bbb565b82828151811061160b577f4e487b7100000000000000000000000000000000000000000000000000000000600052603260045260246000fd5b602002602001018181525050808061162290613f7a565b9150506115c0565b508092505050919050565b662386f26fc1000081565b6000601160009054906101000a900473ffffffffffffffffffffffffffffffffffffffff16905090565b60606008805461167990613f17565b80601f01602080910402602001604051908101604052809291908181526020018280546116a590613f17565b80156116f25780601f106116c7576101008083540402835291602001916116f2565b820191906000526020600020905b8154815290600101906020018083116116d557829003601f168201915b5050505050905090565b61170e611707611ba7565b83836120d2565b5050565b61172361171d611ba7565b83611cb1565b611762576040517f08c379a000000000000000000000000000000000000000000000000000000000815260040161175990613bbe565b60405180910390fd5b61176e8484848461223f565b50505050565b606061177f82611b3b565b6117be576040517f08c379a00000000000000000000000000000000000000000000000000000000081526004016117b590613b5e565b60405180910390fd5b60006117c861229b565b905060008151116117e85760405180602001604052806000815250611813565b806117f28461232d565b604051602001611803929190613790565b6040516020818303038152906040525b915050919050565b7f000000000000000000000000000000000000000000000000000000000000000081565b6014805461184c90613f17565b80601f016020809104026020016040519081016040528092919081815260200182805461187890613f17565b80156118c55780601f1061189a576101008083540402835291602001916118c5565b820191906000526020600020905b8154815290600101906020018083116118a857829003601f168201915b505050505081565b6000600c60008473ffffffffffffffffffffffffffffffffffffffff1673ffffffffffffffffffffffffffffffffffffffff16815260200190815260200160002060008373ffffffffffffffffffffffffffffffffffffffff1673ffffffffffffffffffffffffffffffffffffffff16815260200190815260200160002060009054906101000a900460ff16905092915050565b611969611ba7565b73ffffffffffffffffffffffffffffffffffffffff16611987611640565b73ffffffffffffffffffffffffffffffffffffffff16146119dd576040517f08c379a00000000000000000000000000000000000000000000000000000000081526004016119d490613b3e565b60405180910390fd5b600073ffffffffffffffffffffffffffffffffffffffff168173ffffffffffffffffffffffffffffffffffffffff161415611a4d576040517f08c379a0000000000000000000000000000000000000000000000000000000008152600401611a449061395e565b60405180910390fd5b611a568161200c565b50565b60007f80ac58cd000000000000000000000000000000000000000000000000000000007bffffffffffffffffffffffffffffffffffffffffffffffffffffffff1916827bffffffffffffffffffffffffffffffffffffffffffffffffffffffff19161480611b2457507f5b5e139f000000000000000000000000000000000000000000000000000000007bffffffffffffffffffffffffffffffffffffffffffffffffffffffff1916827bffffffffffffffffffffffffffffffffffffffffffffffffffffffff1916145b80611b345750611b33826124da565b5b9050919050565b60008073ffffffffffffffffffffffffffffffffffffffff166009600084815260200190815260200160002060009054906101000a900473ffffffffffffffffffffffffffffffffffffffff1673ffffffffffffffffffffffffffffffffffffffff1614159050919050565b600033905090565b81600b600083815260200190815260200160002060006101000a81548173ffffffffffffffffffffffffffffffffffffffff021916908373ffffffffffffffffffffffffffffffffffffffff160217905550808273ffffffffffffffffffffffffffffffffffffffff16611c2283611349565b73ffffffffffffffffffffffffffffffffffffffff167f8c5be1e5ebec7d5bd14f71427d1e84f3dd0314c0f7b2291e5b200ac8c7c3b92560405160405180910390a45050565b600081600001549050919050565b60008183611c849190613d38565b905092915050565b6000611c986013611c68565b9050611ca43382612544565b611cae6013612562565b50565b6000611cbc82611b3b565b611cfb576040517f08c379a0000000000000000000000000000000000000000000000000000000008152600401611cf290613a5e565b60405180910390fd5b6000611d0683611349565b90508073ffffffffffffffffffffffffffffffffffffffff168473ffffffffffffffffffffffffffffffffffffffff161480611d7557508373ffffffffffffffffffffffffffffffffffffffff16611d5d8461085c565b73ffffffffffffffffffffffffffffffffffffffff16145b80611d865750611d8581856118cd565b5b91505092915050565b8273ffffffffffffffffffffffffffffffffffffffff16611daf82611349565b73ffffffffffffffffffffffffffffffffffffffff1614611e05576040517f08c379a0000000000000000000000000000000000000000000000000000000008152600401611dfc9061397e565b60405180910390fd5b600073ffffffffffffffffffffffffffffffffffffffff168273ffffffffffffffffffffffffffffffffffffffff161415611e75576040517f08c379a0000000000000000000000000000000000000000000000000000000008152600401611e6c906139be565b60405180910390fd5b611e80838383612578565b611e8b600082611baf565b6001600a60008573ffffffffffffffffffffffffffffffffffffffff1673ffffffffffffffffffffffffffffffffffffffff1681526020019081526020016000206000828254611edb9190613e19565b925050819055506001600a60008473ffffffffffffffffffffffffffffffffffffffff1673ffffffffffffffffffffffffffffffffffffffff1681526020019081526020016000206000828254611f329190613d38565b92505081905550816009600083815260200190815260200160002060006101000a81548173ffffffffffffffffffffffffffffffffffffffff021916908373ffffffffffffffffffffffffffffffffffffffff160217905550808273ffffffffffffffffffffffffffffffffffffffff168473ffffffffffffffffffffffffffffffffffffffff167fddf252ad1be2c89b69c2b068fc378daa952ba7f163c4a11628f55a4df523b3ef60405160405180910390a4611ff183838361268c565b505050565b600081836120049190613dbf565b905092915050565b6000601160009054906101000a900473ffffffffffffffffffffffffffffffffffffffff16905081601160006101000a81548173ffffffffffffffffffffffffffffffffffffffff021916908373ffffffffffffffffffffffffffffffffffffffff1602179055508173ffffffffffffffffffffffffffffffffffffffff168173ffffffffffffffffffffffffffffffffffffffff167f8be0079c531659141344cd1fd0a4f28419497f9722a3daafe3b4186f6b6457e060405160405180910390a35050565b8173ffffffffffffffffffffffffffffffffffffffff168373ffffffffffffffffffffffffffffffffffffffff161415612141576040517f08c379a0000000000000000000000000000000000000000000000000000000008152600401612138906139de565b60405180910390fd5b80600c60008573ffffffffffffffffffffffffffffffffffffffff1673ffffffffffffffffffffffffffffffffffffffff16815260200190815260200160002060008473ffffffffffffffffffffffffffffffffffffffff1673ffffffffffffffffffffffffffffffffffffffff16815260200190815260200160002060006101000a81548160ff0219169083151502179055508173ffffffffffffffffffffffffffffffffffffffff168373ffffffffffffffffffffffffffffffffffffffff167f17307eab39ab6107e8899845ad3d59bd9653f200f220920489ca2b5937696c31836040516122329190613852565b60405180910390a3505050565b61224a848484611d8f565b61225684848484612691565b612295576040517f08c379a000000000000000000000000000000000000000000000000000000000815260040161228c9061393e565b60405180910390fd5b50505050565b6060601480546122aa90613f17565b80601f01602080910402602001604051908101604052809291908181526020018280546122d690613f17565b80156123235780601f106122f857610100808354040283529160200191612323565b820191906000526020600020905b81548152906001019060200180831161230657829003601f168201915b5050505050905090565b60606000821415612375576040518060400160405280600181526020017f300000000000000000000000000000000000000000000000000000000000000081525090506124d5565b600082905060005b600082146123a757808061239090613f7a565b915050600a826123a09190613d8e565b915061237d565b60008167ffffffffffffffff8111156123e9577f4e487b7100000000000000000000000000000000000000000000000000000000600052604160045260246000fd5b6040519080825280601f01601f19166020018201604052801561241b5781602001600182028036833780820191505090505b5090505b600085146124ce576001826124349190613e19565b9150600a856124439190613fc3565b603061244f9190613d38565b60f81b81838151811061248b577f4e487b7100000000000000000000000000000000000000000000000000000000600052603260045260246000fd5b60200101907effffffffffffffffffffffffffffffffffffffffffffffffffffffffffffff1916908160001a905350600a856124c79190613d8e565b945061241f565b8093505050505b919050565b60007f01ffc9a7000000000000000000000000000000000000000000000000000000007bffffffffffffffffffffffffffffffffffffffffffffffffffffffff1916827bffffffffffffffffffffffffffffffffffffffffffffffffffffffff1916149050919050565b61255e828260405180602001604052806000815250612828565b5050565b6001816000016000828254019250508190555050565b612583838383612883565b600073ffffffffffffffffffffffffffffffffffffffff168373ffffffffffffffffffffffffffffffffffffffff1614156125c6576125c181612888565b612605565b8173ffffffffffffffffffffffffffffffffffffffff168373ffffffffffffffffffffffffffffffffffffffff16146126045761260383826128d1565b5b5b600073ffffffffffffffffffffffffffffffffffffffff168273ffffffffffffffffffffffffffffffffffffffff1614156126485761264381612a3e565b612687565b8273ffffffffffffffffffffffffffffffffffffffff168273ffffffffffffffffffffffffffffffffffffffff1614612686576126858282612b81565b5b5b505050565b505050565b60006126b28473ffffffffffffffffffffffffffffffffffffffff16612c00565b1561281b578373ffffffffffffffffffffffffffffffffffffffff1663150b7a026126db611ba7565b8786866040518563ffffffff1660e01b81526004016126fd94939291906137e4565b602060405180830381600087803b15801561271757600080fd5b505af192505050801561274857506040513d601f19601f8201168201806040525081019061274591906131a9565b60015b6127cb573d8060008114612778576040519150601f19603f3d011682016040523d82523d6000602084013e61277d565b606091505b506000815114156127c3576040517f08c379a00000000000000000000000000000000000000000000000000000000081526004016127ba9061393e565b60405180910390fd5b805181602001fd5b63150b7a0260e01b7bffffffffffffffffffffffffffffffffffffffffffffffffffffffff1916817bffffffffffffffffffffffffffffffffffffffffffffffffffffffff191614915050612820565b600190505b949350505050565b6128328383612c23565b61283f6000848484612691565b61287e576040517f08c379a00000000000000000000000000000000000000000000000000000000081526004016128759061393e565b60405180910390fd5b505050565b505050565b600f805490506010600083815260200190815260200160002081905550600f81908060018154018082558091505060019003906000526020600020016000909190919091505550565b600060016128de846113fb565b6128e89190613e19565b90506000600e60008481526020019081526020016000205490508181146129cd576000600d60008673ffffffffffffffffffffffffffffffffffffffff1673ffffffffffffffffffffffffffffffffffffffff168152602001908152602001600020600084815260200190815260200160002054905080600d60008773ffffffffffffffffffffffffffffffffffffffff1673ffffffffffffffffffffffffffffffffffffffff16815260200190815260200160002060008481526020019081526020016000208190555081600e600083815260200190815260200160002081905550505b600e600084815260200190815260200160002060009055600d60008573ffffffffffffffffffffffffffffffffffffffff1673ffffffffffffffffffffffffffffffffffffffff16815260200190815260200160002060008381526020019081526020016000206000905550505050565b60006001600f80549050612a529190613e19565b90506000601060008481526020019081526020016000205490506000600f8381548110612aa8577f4e487b7100000000000000000000000000000000000000000000000000000000600052603260045260246000fd5b9060005260206000200154905080600f8381548110612af0577f4e487b7100000000000000000000000000000000000000000000000000000000600052603260045260246000fd5b90600052602060002001819055508160106000838152602001908152602001600020819055506010600085815260200190815260200160002060009055600f805480612b65577f4e487b7100000000000000000000000000000000000000000000000000000000600052603160045260246000fd5b6001900381819060005260206000200160009055905550505050565b6000612b8c836113fb565b905081600d60008573ffffffffffffffffffffffffffffffffffffffff1673ffffffffffffffffffffffffffffffffffffffff16815260200190815260200160002060008381526020019081526020016000208190555080600e600084815260200190815260200160002081905550505050565b6000808273ffffffffffffffffffffffffffffffffffffffff163b119050919050565b600073ffffffffffffffffffffffffffffffffffffffff168273ffffffffffffffffffffffffffffffffffffffff161415612c93576040517f08c379a0000000000000000000000000000000000000000000000000000000008152600401612c8a90613ade565b60405180910390fd5b612c9c81611b3b565b15612cdc576040517f08c379a0000000000000000000000000000000000000000000000000000000008152600401612cd39061399e565b60405180910390fd5b612ce860008383612578565b6001600a60008473ffffffffffffffffffffffffffffffffffffffff1673ffffffffffffffffffffffffffffffffffffffff1681526020019081526020016000206000828254612d389190613d38565b92505081905550816009600083815260200190815260200160002060006101000a81548173ffffffffffffffffffffffffffffffffffffffff021916908373ffffffffffffffffffffffffffffffffffffffff160217905550808273ffffffffffffffffffffffffffffffffffffffff16600073ffffffffffffffffffffffffffffffffffffffff167fddf252ad1be2c89b69c2b068fc378daa952ba7f163c4a11628f55a4df523b3ef60405160405180910390a4612df96000838361268c565b5050565b828054612e0990613f17565b90600052602060002090601f016020900481019282612e2b5760008555612e72565b82601f10612e4457805160ff1916838001178555612e72565b82800160010185558215612e72579182015b82811115612e71578251825591602001919060010190612e56565b5b509050612e7f9190612e83565b5090565b5b80821115612e9c576000816000905550600101612e84565b5090565b6000612eb3612eae84613c3e565b613c19565b905082815260208101848484011115612ecb57600080fd5b612ed6848285613ed5565b509392505050565b6000612ef1612eec84613c6f565b613c19565b905082815260208101848484011115612f0957600080fd5b612f14848285613ed5565b509392505050565b600081359050612f2b816146fc565b92915050565b600081359050612f4081614713565b92915050565b600081359050612f558161472a565b92915050565b600081519050612f6a8161472a565b92915050565b600082601f830112612f8157600080fd5b8135612f91848260208601612ea0565b91505092915050565b600082601f830112612fab57600080fd5b8135612fbb848260208601612ede565b91505092915050565b600081359050612fd381614741565b92915050565b600060208284031215612feb57600080fd5b6000612ff984828501612f1c565b91505092915050565b6000806040838503121561301557600080fd5b600061302385828601612f1c565b925050602061303485828601612f1c565b9150509250929050565b60008060006060848603121561305357600080fd5b600061306186828701612f1c565b935050602061307286828701612f1c565b925050604061308386828701612fc4565b9150509250925092565b600080600080608085870312156130a357600080fd5b60006130b187828801612f1c565b94505060206130c287828801612f1c565b93505060406130d387828801612fc4565b925050606085013567ffffffffffffffff8111156130f057600080fd5b6130fc87828801612f70565b91505092959194509250565b6000806040838503121561311b57600080fd5b600061312985828601612f1c565b925050602061313a85828601612f31565b9150509250929050565b6000806040838503121561315757600080fd5b600061316585828601612f1c565b925050602061317685828601612fc4565b9150509250929050565b60006020828403121561319257600080fd5b60006131a084828501612f46565b91505092915050565b6000602082840312156131bb57600080fd5b60006131c984828501612f5b565b91505092915050565b6000602082840312156131e457600080fd5b600082013567ffffffffffffffff8111156131fe57600080fd5b61320a84828501612f9a565b91505092915050565b60006020828403121561322557600080fd5b600061323384828501612fc4565b91505092915050565b60006132488383613763565b60208301905092915050565b61325d81613e4d565b82525050565b61326c81613e4d565b82525050565b600061327d82613cb0565b6132878185613cde565b935061329283613ca0565b8060005b838110156132c35781516132aa888261323c565b97506132b583613cd1565b925050600181019050613296565b5085935050505092915050565b6132d981613e5f565b82525050565b60006132ea82613cbb565b6132f48185613cef565b9350613304818560208601613ee4565b61330d816140b0565b840191505092915050565b600061332382613cc6565b61332d8185613d0b565b935061333d818560208601613ee4565b613346816140b0565b840191505092915050565b600061335c82613cc6565b6133668185613d1c565b9350613376818560208601613ee4565b61337f816140b0565b840191505092915050565b600061339582613cc6565b61339f8185613d2d565b93506133af818560208601613ee4565b80840191505092915050565b60006133c8601f83613d1c565b91506133d3826140c1565b602082019050919050565b60006133eb602b83613d1c565b91506133f6826140ea565b604082019050919050565b600061340e603283613d1c565b915061341982614139565b604082019050919050565b6000613431602683613d1c565b915061343c82614188565b604082019050919050565b6000613454602583613d1c565b915061345f826141d7565b604082019050919050565b6000613477601c83613d1c565b915061348282614226565b602082019050919050565b600061349a602483613d1c565b91506134a58261424f565b604082019050919050565b60006134bd601983613d1c565b91506134c88261429e565b602082019050919050565b60006134e0602283613d1c565b91506134eb826142c7565b604082019050919050565b6000613503601583613d1c565b915061350e82614316565b602082019050919050565b6000613526602583613d1c565b91506135318261433f565b604082019050919050565b6000613549602c83613d1c565b91506135548261438e565b604082019050919050565b600061356c603883613d1c565b9150613577826143dd565b604082019050919050565b600061358f602a83613d1c565b915061359a8261442c565b604082019050919050565b60006135b2602983613d1c565b91506135bd8261447b565b604082019050919050565b60006135d5602083613d1c565b91506135e0826144ca565b602082019050919050565b60006135f8601983613d1c565b9150613603826144f3565b602082019050919050565b600061361b602c83613d1c565b91506136268261451c565b604082019050919050565b600061363e602083613d1c565b91506136498261456b565b602082019050919050565b6000613661602f83613d1c565b915061366c82614594565b604082019050919050565b6000613684602183613d1c565b915061368f826145e3565b604082019050919050565b60006136a7600083613d00565b91506136b282614632565b600082019050919050565b60006136ca601083613d1c565b91506136d582614635565b602082019050919050565b60006136ed603183613d1c565b91506136f88261465e565b604082019050919050565b6000613710602c83613d1c565b915061371b826146ad565b604082019050919050565b600060408301600083015161373e6000860182613254565b50602083015184820360208601526137568282613318565b9150508091505092915050565b61376c81613eb7565b82525050565b61377b81613eb7565b82525050565b61378a81613ec1565b82525050565b600061379c828561338a565b91506137a8828461338a565b91508190509392505050565b60006137bf8261369a565b9150819050919050565b60006020820190506137de6000830184613263565b92915050565b60006080820190506137f96000830187613263565b6138066020830186613263565b6138136040830185613772565b818103606083015261382581846132df565b905095945050505050565b6000602082019050818103600083015261384a8184613272565b905092915050565b600060208201905061386760008301846132d0565b92915050565b600060a082019050818103600083015261388781886132df565b9050818103602083015261389b8187613726565b905081810360408301526138af81866132df565b90506138be6060830185613781565b81810360808301526138d081846132df565b90509695505050505050565b600060208201905081810360008301526138f68184613351565b905092915050565b60006020820190508181036000830152613917816133bb565b9050919050565b60006020820190508181036000830152613937816133de565b9050919050565b6000602082019050818103600083015261395781613401565b9050919050565b6000602082019050818103600083015261397781613424565b9050919050565b6000602082019050818103600083015261399781613447565b9050919050565b600060208201905081810360008301526139b78161346a565b9050919050565b600060208201905081810360008301526139d78161348d565b9050919050565b600060208201905081810360008301526139f7816134b0565b9050919050565b60006020820190508181036000830152613a17816134d3565b9050919050565b60006020820190508181036000830152613a37816134f6565b9050919050565b60006020820190508181036000830152613a5781613519565b9050919050565b60006020820190508181036000830152613a778161353c565b9050919050565b60006020820190508181036000830152613a978161355f565b9050919050565b60006020820190508181036000830152613ab781613582565b9050919050565b60006020820190508181036000830152613ad7816135a5565b9050919050565b60006020820190508181036000830152613af7816135c8565b9050919050565b60006020820190508181036000830152613b17816135eb565b9050919050565b60006020820190508181036000830152613b378161360e565b9050919050565b60006020820190508181036000830152613b5781613631565b9050919050565b60006020820190508181036000830152613b7781613654565b9050919050565b60006020820190508181036000830152613b9781613677565b9050919050565b60006020820190508181036000830152613bb7816136bd565b9050919050565b60006020820190508181036000830152613bd7816136e0565b9050919050565b60006020820190508181036000830152613bf781613703565b9050919050565b6000602082019050613c136000830184613772565b92915050565b6000613c23613c34565b9050613c2f8282613f49565b919050565b6000604051905090565b600067ffffffffffffffff821115613c5957613c58614081565b5b613c62826140b0565b9050602081019050919050565b600067ffffffffffffffff821115613c8a57613c89614081565b5b613c93826140b0565b9050602081019050919050565b6000819050602082019050919050565b600081519050919050565b600081519050919050565b600081519050919050565b6000602082019050919050565b600082825260208201905092915050565b600082825260208201905092915050565b600081905092915050565b600082825260208201905092915050565b600082825260208201905092915050565b600081905092915050565b6000613d4382613eb7565b9150613d4e83613eb7565b9250827fffffffffffffffffffffffffffffffffffffffffffffffffffffffffffffffff03821115613d8357613d82613ff4565b5b828201905092915050565b6000613d9982613eb7565b9150613da483613eb7565b925082613db457613db3614023565b5b828204905092915050565b6000613dca82613eb7565b9150613dd583613eb7565b9250817fffffffffffffffffffffffffffffffffffffffffffffffffffffffffffffffff0483118215151615613e0e57613e0d613ff4565b5b828202905092915050565b6000613e2482613eb7565b9150613e2f83613eb7565b925082821015613e4257613e41613ff4565b5b828203905092915050565b6000613e5882613e97565b9050919050565b60008115159050919050565b60007fffffffff0000000000000000000000000000000000000000000000000000000082169050919050565b600073ffffffffffffffffffffffffffffffffffffffff82169050919050565b6000819050919050565b600067ffffffffffffffff82169050919050565b82818337600083830152505050565b60005b83811015613f02578082015181840152602081019050613ee7565b83811115613f11576000848401525b50505050565b60006002820490506001821680613f2f57607f821691505b60208210811415613f4357613f42614052565b5b50919050565b613f52826140b0565b810181811067ffffffffffffffff82111715613f7157613f70614081565b5b80604052505050565b6000613f8582613eb7565b91507fffffffffffffffffffffffffffffffffffffffffffffffffffffffffffffffff821415613fb857613fb7613ff4565b5b600182019050919050565b6000613fce82613eb7565b9150613fd983613eb7565b925082613fe957613fe8614023565b5b828206905092915050565b7f4e487b7100000000000000000000000000000000000000000000000000000000600052601160045260246000fd5b7f4e487b7100000000000000000000000000000000000000000000000000000000600052601260045260246000fd5b7f4e487b7100000000000000000000000000000000000000000000000000000000600052602260045260246000fd5b7f4e487b7100000000000000000000000000000000000000000000000000000000600052604160045260246000fd5b6000601f19601f8301169050919050565b7f4e6f7420656e6f756768204e465473206c65667420746f207265736572766500600082015250565b7f455243373231456e756d657261626c653a206f776e657220696e646578206f7560008201527f74206f6620626f756e6473000000000000000000000000000000000000000000602082015250565b7f4552433732313a207472616e7366657220746f206e6f6e20455243373231526560008201527f63656976657220696d706c656d656e7465720000000000000000000000000000602082015250565b7f4f776e61626c653a206e6577206f776e657220697320746865207a65726f206160008201527f6464726573730000000000000000000000000000000000000000000000000000602082015250565b7f4552433732313a207472616e736665722066726f6d20696e636f72726563742060008201527f6f776e6572000000000000000000000000000000000000000000000000000000602082015250565b7f4552433732313a20746f6b656e20616c7265616479206d696e74656400000000600082015250565b7f4552433732313a207472616e7366657220746f20746865207a65726f2061646460008201527f7265737300000000000000000000000000000000000000000000000000000000602082015250565b7f4552433732313a20617070726f766520746f2063616c6c657200000000000000600082015250565b7f4e6f7420656e6f75676820657468657220746f207075726368617365204e465460008201527f732e000000000000000000000000000000000000000000000000000000000000602082015250565b7f4e6f7420656e6f756768204e465473206c656674210000000000000000000000600082015250565b7f43616e6e6f74206d696e7420737065636966696564206e756d626572206f662060008201527f4e4654732e000000000000000000000000000000000000000000000000000000602082015250565b7f4552433732313a206f70657261746f7220717565727920666f72206e6f6e657860008201527f697374656e7420746f6b656e0000000000000000000000000000000000000000602082015250565b7f4552433732313a20617070726f76652063616c6c6572206973206e6f74206f7760008201527f6e6572206e6f7220617070726f76656420666f7220616c6c0000000000000000602082015250565b7f4552433732313a2062616c616e636520717565727920666f7220746865207a6560008201527f726f206164647265737300000000000000000000000000000000000000000000602082015250565b7f4552433732313a206f776e657220717565727920666f72206e6f6e657869737460008201527f656e7420746f6b656e0000000000000000000000000000000000000000000000602082015250565b7f4552433732313a206d696e7420746f20746865207a65726f2061646472657373600082015250565b7f4e6f206574686572206c65667420746f20776974686472617700000000000000600082015250565b7f4552433732313a20617070726f76656420717565727920666f72206e6f6e657860008201527f697374656e7420746f6b656e0000000000000000000000000000000000000000602082015250565b7f4f776e61626c653a2063616c6c6572206973206e6f7420746865206f776e6572600082015250565b7f4552433732314d657461646174613a2055524920717565727920666f72206e6f60008201527f6e6578697374656e7420746f6b656e0000000000000000000000000000000000602082015250565b7f4552433732313a20617070726f76616c20746f2063757272656e74206f776e6560008201527f7200000000000000000000000000000000000000000000000000000000000000602082015250565b50565b7f5472616e73666572206661696c65642e00000000000000000000000000000000600082015250565b7f4552433732313a207472616e736665722063616c6c6572206973206e6f74206f60008201527f776e6572206e6f7220617070726f766564000000000000000000000000000000602082015250565b7f455243373231456e756d657261626c653a20676c6f62616c20696e646578206f60008201527f7574206f6620626f756e64730000000000000000000000000000000000000000602082015250565b61470581613e4d565b811461471057600080fd5b50565b61471c81613e5f565b811461472757600080fd5b50565b61473381613e6b565b811461473e57600080fd5b50565b61474a81613eb7565b811461475557600080fd5b5056fea2646970667358221220b71d263c34e820aa8ffa026525ac639290ad518944b26ac0af57e5989d041f2064736f6c63430008040033",
  "linkReferences": {},
  "deployedLinkReferences": {}
}